{
  "contractName": "UTXOToken",
  "abi": [
    {
      "constant": false,
      "inputs": [
        {
          "name": "_to",
          "type": "address"
        },
        {
          "name": "_value",
          "type": "uint256"
        }
      ],
      "name": "create",
      "outputs": [],
      "payable": false,
      "stateMutability": "nonpayable",
      "type": "function"
    },
    {
      "constant": true,
      "inputs": [
        {
          "name": "",
          "type": "bytes32"
        }
      ],
      "name": "utxos",
      "outputs": [
        {
          "name": "owner",
          "type": "address"
        },
        {
          "name": "value",
          "type": "uint256"
        },
        {
          "name": "createdBy",
          "type": "bytes32"
        },
        {
          "name": "id",
          "type": "bytes32"
        }
      ],
      "payable": false,
      "stateMutability": "view",
      "type": "function"
    },
    {
      "constant": true,
      "inputs": [
        {
          "name": "_id",
          "type": "bytes32"
        }
      ],
      "name": "getUtxo",
      "outputs": [
        {
          "name": "",
          "type": "address"
        },
        {
          "name": "",
          "type": "uint256"
        },
        {
          "name": "",
          "type": "bytes32"
        }
      ],
      "payable": false,
      "stateMutability": "view",
      "type": "function"
    },
    {
      "constant": false,
      "inputs": [
        {
          "name": "_id",
          "type": "bytes32"
        },
        {
          "name": "_amount",
          "type": "uint256"
        },
        {
          "name": "_to",
          "type": "address"
        }
      ],
      "name": "spend",
      "outputs": [],
      "payable": false,
      "stateMutability": "nonpayable",
      "type": "function"
    },
    {
      "constant": true,
      "inputs": [],
      "name": "admin",
      "outputs": [
        {
          "name": "",
          "type": "address"
        }
      ],
      "payable": false,
      "stateMutability": "view",
      "type": "function"
    },
    {
      "inputs": [
        {
          "name": "_decimals",
          "type": "uint256"
        },
        {
          "name": "_name",
          "type": "string"
        },
        {
          "name": "_symbol",
          "type": "string"
        }
      ],
      "payable": false,
      "stateMutability": "nonpayable",
      "type": "constructor"
    },
    {
      "anonymous": false,
      "inputs": [
        {
          "indexed": true,
          "name": "owner",
          "type": "address"
        },
        {
          "indexed": true,
          "name": "id",
          "type": "bytes32"
        },
        {
          "indexed": false,
          "name": "value",
          "type": "uint256"
        }
      ],
      "name": "LogCreate",
      "type": "event"
    },
    {
      "anonymous": false,
      "inputs": [
        {
          "indexed": true,
          "name": "from",
          "type": "address"
        },
        {
          "indexed": true,
          "name": "to",
          "type": "address"
        },
        {
          "indexed": false,
          "name": "oldId",
          "type": "bytes32"
        },
        {
          "indexed": false,
          "name": "newId",
          "type": "bytes32"
        },
        {
          "indexed": false,
          "name": "newValue",
          "type": "uint256"
        }
      ],
      "name": "LogSpend",
      "type": "event"
    }
  ],
  "bytecode": "0x6060604052341561000f57600080fd5b604051610d45380380610d458339810160405280805190602001909190805182019190602001805182019190505082600381905550816004908051906020019061005a9291906100ba565b5080600590805190602001906100719291906100ba565b50336000806101000a81548173ffffffffffffffffffffffffffffffffffffffff021916908373ffffffffffffffffffffffffffffffffffffffff16021790555050505061015f565b828054600181600116156101000203166002900490600052602060002090601f016020900481019282601f106100fb57805160ff1916838001178555610129565b82800160010185558215610129579182015b8281111561012857825182559160200191906001019061010d565b5b509050610136919061013a565b5090565b61015c91905b80821115610158576000816000905550600101610140565b5090565b90565b610bd78061016e6000396000f30060606040526004361061006d576000357c0100000000000000000000000000000000000000000000000000000000900463ffffffff1680630ecaea73146100725780633cf18ab9146100b4578063c972949b14610140578063de86ff13146101bd578063f851a4401461020c575b600080fd5b341561007d57600080fd5b6100b2600480803573ffffffffffffffffffffffffffffffffffffffff16906020019091908035906020019091905050610261565b005b34156100bf57600080fd5b6100d96004808035600019169060200190919050506104a3565b604051808573ffffffffffffffffffffffffffffffffffffffff1673ffffffffffffffffffffffffffffffffffffffff1681526020018481526020018360001916600019168152602001826000191660001916815260200194505050505060405180910390f35b341561014b57600080fd5b6101656004808035600019169060200190919050506104f3565b604051808473ffffffffffffffffffffffffffffffffffffffff1673ffffffffffffffffffffffffffffffffffffffff1681526020018381526020018260001916600019168152602001935050505060405180910390f35b34156101c857600080fd5b61020a60048080356000191690602001909190803590602001909190803573ffffffffffffffffffffffffffffffffffffffff169060200190919050506105ca565b005b341561021757600080fd5b61021f610a8b565b604051808273ffffffffffffffffffffffffffffffffffffffff1673ffffffffffffffffffffffffffffffffffffffff16815260200191505060405180910390f35b600061026b610b66565b6000809054906101000a900473ffffffffffffffffffffffffffffffffffffffff1673ffffffffffffffffffffffffffffffffffffffff163373ffffffffffffffffffffffffffffffffffffffff161415156102c657600080fd5b433385604051808481526020018373ffffffffffffffffffffffffffffffffffffffff1673ffffffffffffffffffffffffffffffffffffffff166c010000000000000000000000000281526014018273ffffffffffffffffffffffffffffffffffffffff1673ffffffffffffffffffffffffffffffffffffffff166c010000000000000000000000000281526014019350505050604051809103902091506080604051908101604052808573ffffffffffffffffffffffffffffffffffffffff1681526020018481526020016000600102600019168152602001836000191681525090508060016000846000191660001916815260200190815260200160002060008201518160000160006101000a81548173ffffffffffffffffffffffffffffffffffffffff021916908373ffffffffffffffffffffffffffffffffffffffff1602179055506020820151816001015560408201518160020190600019169055606082015181600301906000191690559050508260026000828254019250508190555081600019168473ffffffffffffffffffffffffffffffffffffffff167fa1116f2f79e89469171f448796729e5d361ce252f2757cda0497962f9ac63384856040518082815260200191505060405180910390a350505050565b60016020528060005260406000206000915090508060000160009054906101000a900473ffffffffffffffffffffffffffffffffffffffff16908060010154908060020154908060030154905084565b6000806000610500610b66565b600160008660001916600019168152602001908152602001600020608060405190810160405290816000820160009054906101000a900473ffffffffffffffffffffffffffffffffffffffff1673ffffffffffffffffffffffffffffffffffffffff1673ffffffffffffffffffffffffffffffffffffffff1681526020016001820154815260200160028201546000191660001916815260200160038201546000191660001916815250509050806000015181602001518260400151935093509350509193909250565b6105d2610b66565b60006105dc610b66565b60006105e6610b66565b3373ffffffffffffffffffffffffffffffffffffffff16600160008a6000191660001916815260200190815260200160002060000160009054906101000a900473ffffffffffffffffffffffffffffffffffffffff1673ffffffffffffffffffffffffffffffffffffffff1614151561065e57600080fd5b86600160008a60001916600019168152602001908152602001600020600101541015151561068b57600080fd5b600160008960001916600019168152602001908152602001600020608060405190810160405290816000820160009054906101000a900473ffffffffffffffffffffffffffffffffffffffff1673ffffffffffffffffffffffffffffffffffffffff1673ffffffffffffffffffffffffffffffffffffffff1681526020016001820154815260200160028201546000191660001916815260200160038201546000191660001916815250509450600160008960001916600019168152602001908152602001600020600080820160006101000a81549073ffffffffffffffffffffffffffffffffffffffff0219169055600182016000905560028201600090556003820160009055505061079f8689610ab0565b93506080604051908101604052808773ffffffffffffffffffffffffffffffffffffffff16815260200188815260200189600019168152602001856000191681525092508260016000866000191660001916815260200190815260200160002060008201518160000160006101000a81548173ffffffffffffffffffffffffffffffffffffffff021916908373ffffffffffffffffffffffffffffffffffffffff1602179055506020820151816001015560408201518160020190600019169055606082015181600301906000191690559050508573ffffffffffffffffffffffffffffffffffffffff163373ffffffffffffffffffffffffffffffffffffffff167fa2acb8475c115dd9b6b4f331c3fa77c14342cf09a9ea4167e72bf9a60cd76d188760600151878b6040518084600019166000191681526020018360001916600019168152602001828152602001935050505060405180910390a38460200151871015610a815761091733600180028a18610ab0565b91506080604051908101604052803373ffffffffffffffffffffffffffffffffffffffff16815260200188876020015103815260200189600019168152602001836000191681525090508060016000846000191660001916815260200190815260200160002060008201518160000160006101000a81548173ffffffffffffffffffffffffffffffffffffffff021916908373ffffffffffffffffffffffffffffffffffffffff1602179055506020820151816001015560408201518160020190600019169055606082015181600301906000191690559050508573ffffffffffffffffffffffffffffffffffffffff163373ffffffffffffffffffffffffffffffffffffffff167fa2acb8475c115dd9b6b4f331c3fa77c14342cf09a9ea4167e72bf9a60cd76d188760600151858b8a60200151036040518084600019166000191681526020018360001916600019168152602001828152602001935050505060405180910390a35b5050505050505050565b6000809054906101000a900473ffffffffffffffffffffffffffffffffffffffff1681565b600043338484604051808581526020018473ffffffffffffffffffffffffffffffffffffffff1673ffffffffffffffffffffffffffffffffffffffff166c010000000000000000000000000281526014018373ffffffffffffffffffffffffffffffffffffffff1673ffffffffffffffffffffffffffffffffffffffff166c0100000000000000000000000002815260140182600019166000191681526020019450505050506040518091039020905092915050565b608060405190810160405280600073ffffffffffffffffffffffffffffffffffffffff16815260200160008152602001600080191681526020016000801916815250905600a165627a7a723058204aaa49d51227332c6b933c9360c15354ec65888c427dc93fb1f0781e8b49ab4e0029",
  "source": "pragma solidity ^0.4.18;\n\ncontract UTXOToken {\n  address public admin;\n  struct UTXO {\n    address owner;\n    uint value;\n    bytes32 createdBy;\n    bytes32 id;\n  }\n  mapping (bytes32 => UTXO) public utxos;\n  uint totalSupply;\n  uint decimals;\n  string name;\n  string symbol;\n\n  event LogCreate(address indexed owner, bytes32 indexed id, uint value);\n  event LogSpend(address indexed from, address indexed to, bytes32 oldId, bytes32 newId, uint newValue);\n\n  function getUtxo(bytes32 _id) public constant returns(address, uint, bytes32) {\n    UTXO memory utxo = utxos[_id];\n    return(utxo.owner, utxo.value, utxo.createdBy);\n  }\n\n  function getId(address _to, bytes32 _input) internal constant returns(bytes32) {\n    return keccak256(block.number, msg.sender, _to, _input);\n  }\n\n  function create(address _to, uint _value) onlyAdmin() public {\n    bytes32 id = keccak256(block.number, msg.sender, _to);\n    UTXO memory utxo = UTXO(_to, _value, bytes32(0), id);\n    utxos[id] = utxo;\n    totalSupply += _value;\n    LogCreate(_to, id, _value);\n  }\n\n  function spend(bytes32 _id, uint _amount, address _to) public {\n    require(utxos[_id].owner == msg.sender);\n    require(utxos[_id].value >= _amount);\n\n    UTXO memory oldUtxo = utxos[_id];\n    delete utxos[_id];\n\n    bytes32 newId1 = getId(_to, _id);\n    UTXO memory spend1 = UTXO(_to, _amount, _id, newId1);\n    utxos[newId1] = spend1;\n    LogSpend(msg.sender, _to, oldUtxo.id, newId1, _amount);\n\n    if (_amount < oldUtxo.value) {\n      // slightly mutate the _id value to prevent a collision\n      bytes32 newId2 = getId(msg.sender, _id ^ bytes32(1));\n      UTXO memory spend2 = UTXO(msg.sender, oldUtxo.value - _amount, _id, newId2);\n      utxos[newId2] = spend2;\n      LogSpend(msg.sender, _to, oldUtxo.id, newId2, oldUtxo.value - _amount);\n    }\n  }\n\n  function UTXOToken(uint _decimals, string _name, string _symbol) public {\n    decimals = _decimals;\n    name = _name;\n    symbol = _symbol;\n    admin = msg.sender;\n  }\n\n  modifier onlyAdmin() {\n    require(msg.sender == admin);\n    _;\n  }\n}\n",
  "sourcePath": "/Users/alexmiller/Projects/gridplus/ethereum/utxo-token/contracts/UTXOToken.sol",
  "compiler": {
    "name": "solc",
    "version": "0.4.18+commit.9cf6e910.Emscripten.clang"
  },
  "schemaVersion": "1.0.1",
  "updatedAt": "2018-02-26T18:32:34.332Z"
}